:020000040800F2
:10000000600600206D0100087501000877010008F6
:10001000790100087B0100087D0100080000000054
:100020000000000000000000000000007F01000848
:10003000810100080000000083010008850100081C
:100040008701000887010008870100088701000870
:100050008701000887010008870100088701000860
:100060008701000887010008870100088701000850
:100070008701000887010008870100088701000840
:100080008701000887010008870100088701000830
:100090008701000887010008870100088701000820
:1000A0008701000887010008870100088701000810
:1000B0008701000887010008870100088701000800
:1000C00087010008870100088701000887010008F0
:1000D00087010008870100088701000887010008E0
:1000E00087010008870100088701000800F002F876
:1000F00000F02CF80AA090E8000C82448344AAF196
:100100000107DA4501D100F021F8AFF2090EBAE893
:100110000F0013F0010F18BFFB1A43F0010318473B
:10012000A4050000B40500000023002400250026DB
:10013000103A28BF78C1FBD8520728BF30C148BF4A
:100140000B6070471FB51FBD10B510BD00F031F832
:100150001146FFF7F7FF00F095FA00F04FF803B4EF
:10016000FFF7F2FF03BC00F057F800000948804792
:1001700009480047FEE7FEE7FEE7FEE7FEE7FEE789
:10018000FEE7FEE7FEE7FEE704480549054A064BA1
:100190007047000055030008ED00000860000020D3
:1001A0006006002060020020600200207047704757
:1001B0007047754600F02CF8AE4605006946534678
:1001C00020F00700854618B020B5FFF7DDFFBDE839
:1001D00020404FF000064FF000074FF000084FF0AE
:1001E000000BAC46ACE8C009ACE8C009ACE8C009FB
:1001F000ACE8C00921F007018D46704710B50446F0
:10020000AFF300802046BDE81040FFF7A8BF000014
:10021000004870470000002001491820ABBEFEE7EF
:10022000260002007047000080B500F001F880BD94
:1002300084B000200390029041F20001C4F2020158
:10024000086840F480300860FFE741F20000C4F223
:100250000200006800F4003002900398013003901F
:10026000FFE702990020019039B9FFE70398B0F544
:10027000A06018BF01200190FFE70198C007002887
:10028000E3D1FFE741F20000C4F2020000688003FE
:10029000002803D5FFE70120029002E00020029031
:1002A000FFE70298012851D1FFE742F20001C4F2B2
:1002B0000201086840F010000860086820F007009C
:1002C0000860086840F00200086041F20401C4F2CE
:1002D000020100910868086008680860086840F436
:1002E00080600860086820F47C100860086840F4AA
:1002F000E810086041F20001C4F20201086840F011
:1003000080700860FFE741F20000C4F2020000685C
:100310008001002801D4FFE7F5E741F20401C4F2AF
:100320000201086820F003000860086840F002003D
:100330000860FFE741F20400C4F20200006800F028
:100340000C00082801D0FFE7F4E700E0FFE704B065
:100350007047000080B541F20002C4F2020210684A
:1003600040F00100106041F20401C4F2020108688B
:100370000023CFF6FF031840086010684FF6FF73A4
:10038000CFF6F66318401060106820F480201060EB
:10039000086820F4FE00086041F20801C4F202017E
:1003A0004FF41F000860FFF73FFF4EF60851CEF2F2
:1003B00000014FF00060086080BD000083B0029033
:1003C00000200190FFE701980299884212D2FFE7CE
:1003D00000200090FFE7009800097C2805D8FFE77F
:1003E000FFE7009801300090F5E7FFE70198013042
:1003F0000190E8E703B0704782B001908DF80310D8
:100400009DF8030001285AD1FFE7019840F600014A
:10041000C4F20101884209D1FFE741F21801C4F298
:100420000201086840F00400086047E0019840F6C7
:100430000041C4F20101884209D1FFE741F21801ED
:10044000C4F20201086840F00800086035E0019835
:1004500041F20001C4F20101884209D1FFE741F2F3
:100460001801C4F20201086840F01000086023E09F
:10047000019841F20041C4F20101884209D1FFE72D
:1004800041F21801C4F20201086840F0200008603F
:1004900011E0019841F60001C4F20101884209D13E
:1004A000FFE741F21801C4F20201086840F0400081
:1004B0000860FFE7FFE7FFE7FFE7FFE759E0019884
:1004C00040F60001C4F20101884209D1FFE741F280
:1004D0001801C4F20201086820F00400086047E037
:1004E000019840F60041C4F20101884209D1FFE7BA
:1004F00041F21801C4F20201086820F00800086007
:1005000035E0019841F20001C4F20101884209D1AD
:10051000FFE741F21801C4F20201086820F0100060
:10052000086023E0019841F20041C4F201018842D1
:1005300009D1FFE741F21801C4F20201086820F076
:100540002000086011E0019841F60001C4F20101A9
:10055000884209D1FFE741F21801C4F2020108689C
:1005600020F040000860FFE7FFE7FFE7FFE7FFE755
:10057000FFE702B07047000080B582B00190002014
:100580000090019800680121FFF736FF019840684C
:10059000082824D3FFE70198026840686FF01F0124
:1005A00001EB80030F2000FA03F35068984350607A
:1005B00001984268806801EB820200FA02F200981A
:1005C0001043009001984268C06801EB820202214A
:1005D000914000FA01F10098084300901EE0019854
:1005E00041688068890000FA01F100980843009092
:1005F00001980168406882000F2000FA02F2486802
:100600009043486001984168C0688A000221914087
:1006100000FA01F1009808430090FFE70198006993
:1006200050B1FFE7019841680069890000FA01F1C3
:10063000009808430090FFE701984068082807D316
:10064000FFE7009A0198016848681043486006E097
:10065000009A01980168086810430860FFE702B03B
:1006600080BD000082B001908DF803109DF803104A
:10067000012000FA01F20199C8685040C86002B038
:100680007047000080B586B00020059041F200015F
:10069000C4F2010100910D21019101210291039009
:1006A000022004906846FFF767FFFFE741F2000071
:1006B000C4F201000D21FFF7D5FF4FF4FA70FFF7E8
:1006C0007DFEF3E7D406000800000020600600006D
:0406D00028010008F5
:04000005080000ED02
:00000001FF
